{
  "_format": "hh-sol-artifact-1",
  "contractName": "AdvancedPostManager",
  "sourceName": "contracts/AdvancedPostManager.sol",
  "abi": [
    {
      "inputs": [],
      "stateMutability": "nonpayable",
      "type": "constructor"
    },
    {
      "anonymous": false,
      "inputs": [
        {
          "indexed": true,
          "internalType": "uint256",
          "name": "postId",
          "type": "uint256"
        },
        {
          "indexed": false,
          "internalType": "string",
          "name": "ipfsCID",
          "type": "string"
        }
      ],
      "name": "PostApproved",
      "type": "event"
    },
    {
      "anonymous": false,
      "inputs": [
        {
          "indexed": true,
          "internalType": "uint256",
          "name": "postId",
          "type": "uint256"
        },
        {
          "indexed": false,
          "internalType": "string",
          "name": "reason",
          "type": "string"
        }
      ],
      "name": "PostFailed",
      "type": "event"
    },
    {
      "anonymous": false,
      "inputs": [
        {
          "indexed": true,
          "internalType": "uint256",
          "name": "postId",
          "type": "uint256"
        },
        {
          "indexed": false,
          "internalType": "uint256",
          "name": "similarityScore",
          "type": "uint256"
        },
        {
          "indexed": false,
          "internalType": "string",
          "name": "mostSimilarPostId",
          "type": "string"
        }
      ],
      "name": "PostRejected",
      "type": "event"
    },
    {
      "anonymous": false,
      "inputs": [
        {
          "indexed": true,
          "internalType": "uint256",
          "name": "postId",
          "type": "uint256"
        },
        {
          "indexed": true,
          "internalType": "address",
          "name": "author",
          "type": "address"
        },
        {
          "indexed": false,
          "internalType": "string",
          "name": "username",
          "type": "string"
        }
      ],
      "name": "PostSubmitted",
      "type": "event"
    },
    {
      "anonymous": false,
      "inputs": [
        {
          "indexed": true,
          "internalType": "uint256",
          "name": "postId",
          "type": "uint256"
        }
      ],
      "name": "SimilarityCheckRequested",
      "type": "event"
    },
    {
      "inputs": [],
      "name": "getAllApprovedPostsWithContent",
      "outputs": [
        {
          "components": [
            {
              "internalType": "uint256",
              "name": "id",
              "type": "uint256"
            },
            {
              "internalType": "address",
              "name": "author",
              "type": "address"
            },
            {
              "internalType": "string",
              "name": "username",
              "type": "string"
            },
            {
              "internalType": "string",
              "name": "ipfsCID",
              "type": "string"
            },
            {
              "internalType": "uint256",
              "name": "timestamp",
              "type": "uint256"
            },
            {
              "internalType": "enum AdvancedPostManager.PostStatus",
              "name": "status",
              "type": "uint8"
            },
            {
              "internalType": "uint256",
              "name": "similarityScore",
              "type": "uint256"
            },
            {
              "internalType": "string",
              "name": "mostSimilarPostId",
              "type": "string"
            }
          ],
          "internalType": "struct AdvancedPostManager.Post[]",
          "name": "",
          "type": "tuple[]"
        }
      ],
      "stateMutability": "view",
      "type": "function"
    },
    {
      "inputs": [
        {
          "internalType": "uint256",
          "name": "offset",
          "type": "uint256"
        },
        {
          "internalType": "uint256",
          "name": "limit",
          "type": "uint256"
        }
      ],
      "name": "getApprovedPosts",
      "outputs": [
        {
          "components": [
            {
              "internalType": "uint256",
              "name": "id",
              "type": "uint256"
            },
            {
              "internalType": "address",
              "name": "author",
              "type": "address"
            },
            {
              "internalType": "string",
              "name": "username",
              "type": "string"
            },
            {
              "internalType": "string",
              "name": "ipfsCID",
              "type": "string"
            },
            {
              "internalType": "uint256",
              "name": "timestamp",
              "type": "uint256"
            },
            {
              "internalType": "enum AdvancedPostManager.PostStatus",
              "name": "status",
              "type": "uint8"
            },
            {
              "internalType": "uint256",
              "name": "similarityScore",
              "type": "uint256"
            },
            {
              "internalType": "string",
              "name": "mostSimilarPostId",
              "type": "string"
            }
          ],
          "internalType": "struct AdvancedPostManager.Post[]",
          "name": "",
          "type": "tuple[]"
        }
      ],
      "stateMutability": "view",
      "type": "function"
    },
    {
      "inputs": [
        {
          "internalType": "uint256",
          "name": "postId",
          "type": "uint256"
        }
      ],
      "name": "getPost",
      "outputs": [
        {
          "components": [
            {
              "internalType": "uint256",
              "name": "id",
              "type": "uint256"
            },
            {
              "internalType": "address",
              "name": "author",
              "type": "address"
            },
            {
              "internalType": "string",
              "name": "username",
              "type": "string"
            },
            {
              "internalType": "string",
              "name": "ipfsCID",
              "type": "string"
            },
            {
              "internalType": "uint256",
              "name": "timestamp",
              "type": "uint256"
            },
            {
              "internalType": "enum AdvancedPostManager.PostStatus",
              "name": "status",
              "type": "uint8"
            },
            {
              "internalType": "uint256",
              "name": "similarityScore",
              "type": "uint256"
            },
            {
              "internalType": "string",
              "name": "mostSimilarPostId",
              "type": "string"
            }
          ],
          "internalType": "struct AdvancedPostManager.Post",
          "name": "",
          "type": "tuple"
        }
      ],
      "stateMutability": "view",
      "type": "function"
    },
    {
      "inputs": [
        {
          "internalType": "address",
          "name": "user",
          "type": "address"
        }
      ],
      "name": "getUserPosts",
      "outputs": [
        {
          "internalType": "uint256[]",
          "name": "",
          "type": "uint256[]"
        }
      ],
      "stateMutability": "view",
      "type": "function"
    },
    {
      "inputs": [
        {
          "internalType": "uint256",
          "name": "postId",
          "type": "uint256"
        },
        {
          "internalType": "string",
          "name": "reason",
          "type": "string"
        }
      ],
      "name": "markPostFailed",
      "outputs": [],
      "stateMutability": "nonpayable",
      "type": "function"
    },
    {
      "inputs": [],
      "name": "oracle",
      "outputs": [
        {
          "internalType": "address",
          "name": "",
          "type": "address"
        }
      ],
      "stateMutability": "view",
      "type": "function"
    },
    {
      "inputs": [],
      "name": "postCount",
      "outputs": [
        {
          "internalType": "uint256",
          "name": "",
          "type": "uint256"
        }
      ],
      "stateMutability": "view",
      "type": "function"
    },
    {
      "inputs": [
        {
          "internalType": "uint256",
          "name": "",
          "type": "uint256"
        }
      ],
      "name": "posts",
      "outputs": [
        {
          "internalType": "uint256",
          "name": "id",
          "type": "uint256"
        },
        {
          "internalType": "address",
          "name": "author",
          "type": "address"
        },
        {
          "internalType": "string",
          "name": "username",
          "type": "string"
        },
        {
          "internalType": "string",
          "name": "ipfsCID",
          "type": "string"
        },
        {
          "internalType": "uint256",
          "name": "timestamp",
          "type": "uint256"
        },
        {
          "internalType": "enum AdvancedPostManager.PostStatus",
          "name": "status",
          "type": "uint8"
        },
        {
          "internalType": "uint256",
          "name": "similarityScore",
          "type": "uint256"
        },
        {
          "internalType": "string",
          "name": "mostSimilarPostId",
          "type": "string"
        }
      ],
      "stateMutability": "view",
      "type": "function"
    },
    {
      "inputs": [
        {
          "internalType": "uint256",
          "name": "postId",
          "type": "uint256"
        },
        {
          "internalType": "uint256",
          "name": "similarityScore",
          "type": "uint256"
        },
        {
          "internalType": "string",
          "name": "mostSimilarPostId",
          "type": "string"
        },
        {
          "internalType": "string",
          "name": "ipfsCID",
          "type": "string"
        }
      ],
      "name": "processSimilarityResult",
      "outputs": [],
      "stateMutability": "nonpayable",
      "type": "function"
    },
    {
      "inputs": [
        {
          "internalType": "address",
          "name": "_oracle",
          "type": "address"
        }
      ],
      "name": "setOracle",
      "outputs": [],
      "stateMutability": "nonpayable",
      "type": "function"
    },
    {
      "inputs": [
        {
          "internalType": "uint256",
          "name": "_threshold",
          "type": "uint256"
        }
      ],
      "name": "setSimilarityThreshold",
      "outputs": [],
      "stateMutability": "nonpayable",
      "type": "function"
    },
    {
      "inputs": [],
      "name": "similarityThreshold",
      "outputs": [
        {
          "internalType": "uint256",
          "name": "",
          "type": "uint256"
        }
      ],
      "stateMutability": "view",
      "type": "function"
    },
    {
      "inputs": [
        {
          "internalType": "string",
          "name": "username",
          "type": "string"
        }
      ],
      "name": "submitPost",
      "outputs": [
        {
          "internalType": "uint256",
          "name": "",
          "type": "uint256"
        }
      ],
      "stateMutability": "nonpayable",
      "type": "function"
    },
    {
      "inputs": [
        {
          "internalType": "address",
          "name": "",
          "type": "address"
        },
        {
          "internalType": "uint256",
          "name": "",
          "type": "uint256"
        }
      ],
      "name": "userPosts",
      "outputs": [
        {
          "internalType": "uint256",
          "name": "",
          "type": "uint256"
        }
      ],
      "stateMutability": "view",
      "type": "function"
    }
  ],
  "bytecode": "0x6080604052605060015534801561001557600080fd5b5033600260006101000a81548173ffffffffffffffffffffffffffffffffffffffff021916908373ffffffffffffffffffffffffffffffffffffffff160217905550612bab806100666000396000f3fe608060405234801561001057600080fd5b50600436106100e95760003560e01c80638064d1491161008c5780639a2194a9116100665780639a2194a914610263578063a599774614610293578063c1727583146102c3578063d3a64c63146102e1576100e9565b80638064d149146101fb57806393d36f8b1461022b57806395e8ca1914610247576100e9565b8063217949ec116100c8578063217949ec1461016157806340731c24146101915780637adbf973146101c15780637dc0d1d0146101dd576100e9565b8062f499b4146100ee5780630b1e7f831461010c57806317906c2e14610143575b600080fd5b6100f66102fd565b6040516101039190611ddd565b60405180910390f35b61012660048036038101906101219190611e3f565b610708565b60405161013a989796959493929190611ee3565b60405180910390f35b61014b610915565b6040516101589190611f76565b60405180910390f35b61017b60048036038101906101769190611f91565b61091b565b6040516101889190611ddd565b60405180910390f35b6101ab60048036038101906101a69190611e3f565b610d8b565b6040516101b8919061208f565b60405180910390f35b6101db60048036038101906101d691906120dd565b61106f565b005b6101e5611143565b6040516101f2919061210a565b60405180910390f35b61021560048036038101906102109190612125565b611169565b6040516102229190611f76565b60405180910390f35b6102456004803603810190610240919061229a565b61119a565b005b610261600480360381019061025c9190612339565b61146f565b005b61027d600480360381019061027891906120dd565b611654565b60405161028a9190612444565b60405180910390f35b6102ad60048036038101906102a89190612466565b6116eb565b6040516102ba9190611f76565b60405180910390f35b6102cb6119ab565b6040516102d89190611f76565b60405180910390f35b6102fb60048036038101906102f69190611e3f565b6119b1565b005b6060600080600190505b6000548111610381576002600381111561032457610323611c12565b5b6003600083815260200190815260200160002060050160009054906101000a900460ff16600381111561035a57610359611c12565b5b0361036e57818061036a906124de565b9250505b8080610379906124de565b915050610307565b5060008167ffffffffffffffff81111561039e5761039d61216f565b5b6040519080825280602002602001820160405280156103d757816020015b6103c4611a8f565b8152602001906001900390816103bc5790505b509050600080600190505b60005481116106fe57600260038111156103ff576103fe611c12565b5b6003600083815260200190815260200160002060050160009054906101000a900460ff16600381111561043557610434611c12565b5b036106eb576003600082815260200190815260200160002060405180610100016040529081600082015481526020016001820160009054906101000a900473ffffffffffffffffffffffffffffffffffffffff1673ffffffffffffffffffffffffffffffffffffffff1673ffffffffffffffffffffffffffffffffffffffff1681526020016002820180546104c990612555565b80601f01602080910402602001604051908101604052809291908181526020018280546104f590612555565b80156105425780601f1061051757610100808354040283529160200191610542565b820191906000526020600020905b81548152906001019060200180831161052557829003601f168201915b5050505050815260200160038201805461055b90612555565b80601f016020809104026020016040519081016040528092919081815260200182805461058790612555565b80156105d45780601f106105a9576101008083540402835291602001916105d4565b820191906000526020600020905b8154815290600101906020018083116105b757829003601f168201915b50505050508152602001600482015481526020016005820160009054906101000a900460ff16600381111561060c5761060b611c12565b5b600381111561061e5761061d611c12565b5b81526020016006820154815260200160078201805461063c90612555565b80601f016020809104026020016040519081016040528092919081815260200182805461066890612555565b80156106b55780601f1061068a576101008083540402835291602001916106b5565b820191906000526020600020905b81548152906001019060200180831161069857829003601f168201915b5050505050815250508383815181106106d1576106d0612586565b5b602002602001018190525081806106e7906124de565b9250505b80806106f6906124de565b9150506103e2565b5081935050505090565b60036020528060005260406000206000915090508060000154908060010160009054906101000a900473ffffffffffffffffffffffffffffffffffffffff169080600201805461075790612555565b80601f016020809104026020016040519081016040528092919081815260200182805461078390612555565b80156107d05780601f106107a5576101008083540402835291602001916107d0565b820191906000526020600020905b8154815290600101906020018083116107b357829003601f168201915b5050505050908060030180546107e590612555565b80601f016020809104026020016040519081016040528092919081815260200182805461081190612555565b801561085e5780601f106108335761010080835404028352916020019161085e565b820191906000526020600020905b81548152906001019060200180831161084157829003601f168201915b5050505050908060040154908060050160009054906101000a900460ff169080600601549080600701805461089290612555565b80601f01602080910402602001604051908101604052809291908181526020018280546108be90612555565b801561090b5780601f106108e05761010080835404028352916020019161090b565b820191906000526020600020905b8154815290600101906020018083116108ee57829003601f168201915b5050505050905088565b60005481565b6060600080600190505b600054811161099f576002600381111561094257610941611c12565b5b6003600083815260200190815260200160002060050160009054906101000a900460ff16600381111561097857610977611c12565b5b0361098c578180610988906124de565b9250505b8080610997906124de565b915050610925565b5060008390508184866109b291906125b5565b11156109d6578482116109c65760006109d3565b84826109d291906125e9565b5b90505b60008167ffffffffffffffff8111156109f2576109f161216f565b5b604051908082528060200260200182016040528015610a2b57816020015b610a18611a8f565b815260200190600190039081610a105790505b5090506000806000600190505b6000548111158015610a4957508483105b15610d7c5760026003811115610a6257610a61611c12565b5b6003600083815260200190815260200160002060050160009054906101000a900460ff166003811115610a9857610a97611c12565b5b03610d6957888210610d59576003600082815260200190815260200160002060405180610100016040529081600082015481526020016001820160009054906101000a900473ffffffffffffffffffffffffffffffffffffffff1673ffffffffffffffffffffffffffffffffffffffff1673ffffffffffffffffffffffffffffffffffffffff168152602001600282018054610b3390612555565b80601f0160208091040260200160405190810160405280929190818152602001828054610b5f90612555565b8015610bac5780601f10610b8157610100808354040283529160200191610bac565b820191906000526020600020905b815481529060010190602001808311610b8f57829003601f168201915b50505050508152602001600382018054610bc590612555565b80601f0160208091040260200160405190810160405280929190818152602001828054610bf190612555565b8015610c3e5780601f10610c1357610100808354040283529160200191610c3e565b820191906000526020600020905b815481529060010190602001808311610c2157829003601f168201915b50505050508152602001600482015481526020016005820160009054906101000a900460ff166003811115610c7657610c75611c12565b5b6003811115610c8857610c87611c12565b5b815260200160068201548152602001600782018054610ca690612555565b80601f0160208091040260200160405190810160405280929190818152602001828054610cd290612555565b8015610d1f5780601f10610cf457610100808354040283529160200191610d1f565b820191906000526020600020905b815481529060010190602001808311610d0257829003601f168201915b505050505081525050848481518110610d3b57610d3a612586565b5b60200260200101819052508280610d51906124de565b935050610d68565b8180610d64906124de565b9250505b5b8080610d74906124de565b915050610a38565b50829550505050505092915050565b610d93611a8f565b6000548211158015610da55750600082115b610de4576040517f08c379a0000000000000000000000000000000000000000000000000000000008152600401610ddb90612669565b60405180910390fd5b6003600083815260200190815260200160002060405180610100016040529081600082015481526020016001820160009054906101000a900473ffffffffffffffffffffffffffffffffffffffff1673ffffffffffffffffffffffffffffffffffffffff1673ffffffffffffffffffffffffffffffffffffffff168152602001600282018054610e7390612555565b80601f0160208091040260200160405190810160405280929190818152602001828054610e9f90612555565b8015610eec5780601f10610ec157610100808354040283529160200191610eec565b820191906000526020600020905b815481529060010190602001808311610ecf57829003601f168201915b50505050508152602001600382018054610f0590612555565b80601f0160208091040260200160405190810160405280929190818152602001828054610f3190612555565b8015610f7e5780601f10610f5357610100808354040283529160200191610f7e565b820191906000526020600020905b815481529060010190602001808311610f6157829003601f168201915b50505050508152602001600482015481526020016005820160009054906101000a900460ff166003811115610fb657610fb5611c12565b5b6003811115610fc857610fc7611c12565b5b815260200160068201548152602001600782018054610fe690612555565b80601f016020809104026020016040519081016040528092919081815260200182805461101290612555565b801561105f5780601f106110345761010080835404028352916020019161105f565b820191906000526020600020905b81548152906001019060200180831161104257829003601f168201915b5050505050815250509050919050565b600260009054906101000a900473ffffffffffffffffffffffffffffffffffffffff1673ffffffffffffffffffffffffffffffffffffffff163373ffffffffffffffffffffffffffffffffffffffff16146110ff576040517f08c379a00000000000000000000000000000000000000000000000000000000081526004016110f6906126d5565b60405180910390fd5b80600260006101000a81548173ffffffffffffffffffffffffffffffffffffffff021916908373ffffffffffffffffffffffffffffffffffffffff16021790555050565b600260009054906101000a900473ffffffffffffffffffffffffffffffffffffffff1681565b6004602052816000526040600020818154811061118557600080fd5b90600052602060002001600091509150505481565b600260009054906101000a900473ffffffffffffffffffffffffffffffffffffffff1673ffffffffffffffffffffffffffffffffffffffff163373ffffffffffffffffffffffffffffffffffffffff161461122a576040517f08c379a0000000000000000000000000000000000000000000000000000000008152600401611221906126d5565b60405180910390fd5b600054841115801561123c5750600084115b61127b576040517f08c379a000000000000000000000000000000000000000000000000000000000815260040161127290612669565b60405180910390fd5b6000600381111561128f5761128e611c12565b5b6003600086815260200190815260200160002060050160009054906101000a900460ff1660038111156112c5576112c4611c12565b5b14611305576040517f08c379a00000000000000000000000000000000000000000000000000000000081526004016112fc90612741565b60405180910390fd5b600060036000868152602001908152602001600020905083816006018190555082816007019081611336919061290d565b5060015484106113ac5760018160050160006101000a81548160ff0219169083600381111561136857611367611c12565b5b0217905550847f905653cd683904e0dcedb1005002dcbd3561ee228842b8991b20213042f1dc46858560405161139f9291906129df565b60405180910390a2611468565b60008251116113f0576040517f08c379a00000000000000000000000000000000000000000000000000000000081526004016113e790612a5b565b60405180910390fd5b60028160050160006101000a81548160ff0219169083600381111561141857611417611c12565b5b02179055508181600301908161142e919061290d565b50847fa2bec16f49b1ed41b244b9e40e52dc001d851f616080d353821c5b782bfd8d288360405161145f9190612a7b565b60405180910390a25b5050505050565b600260009054906101000a900473ffffffffffffffffffffffffffffffffffffffff1673ffffffffffffffffffffffffffffffffffffffff163373ffffffffffffffffffffffffffffffffffffffff16146114ff576040517f08c379a00000000000000000000000000000000000000000000000000000000081526004016114f6906126d5565b60405180910390fd5b60005482111580156115115750600082115b611550576040517f08c379a000000000000000000000000000000000000000000000000000000000815260040161154790612669565b60405180910390fd5b6000600381111561156457611563611c12565b5b6003600084815260200190815260200160002060050160009054906101000a900460ff16600381111561159a57611599611c12565b5b146115da576040517f08c379a00000000000000000000000000000000000000000000000000000000081526004016115d190612741565b60405180910390fd5b600380600084815260200190815260200160002060050160006101000a81548160ff0219169083600381111561161357611612611c12565b5b0217905550817f0b28567157fa55b287598f97b4b88ee20e49a09f361d7669198e52d131149043826040516116489190612a7b565b60405180910390a25050565b6060600460008373ffffffffffffffffffffffffffffffffffffffff1673ffffffffffffffffffffffffffffffffffffffff1681526020019081526020016000208054806020026020016040519081016040528092919081815260200182805480156116df57602002820191906000526020600020905b8154815260200190600101908083116116cb575b50505050509050919050565b600080825111611730576040517f08c379a000000000000000000000000000000000000000000000000000000000815260040161172790612ae9565b60405180910390fd5b600080815480929190611742906124de565b919050555060405180610100016040528060005481526020013373ffffffffffffffffffffffffffffffffffffffff168152602001838152602001604051806020016040528060008152508152602001428152602001600060038111156117ac576117ab611c12565b5b8152602001600081526020016040518060200160405280600081525081525060036000805481526020019081526020016000206000820151816000015560208201518160010160006101000a81548173ffffffffffffffffffffffffffffffffffffffff021916908373ffffffffffffffffffffffffffffffffffffffff1602179055506040820151816002019081611845919061290d565b50606082015181600301908161185b919061290d565b506080820151816004015560a08201518160050160006101000a81548160ff0219169083600381111561189157611890611c12565b5b021790555060c0820151816006015560e08201518160070190816118b5919061290d565b50905050600460003373ffffffffffffffffffffffffffffffffffffffff1673ffffffffffffffffffffffffffffffffffffffff16815260200190815260200160002060005490806001815401808255809150506001900390600052602060002001600090919091909150553373ffffffffffffffffffffffffffffffffffffffff166000547f80170991229f531e5b28e31c3a2e55cd1fa077ccf9d6af8fdc85142983f9a81c8460405161196a9190612a7b565b60405180910390a36000547f3184c06d9dac4dd3996d701a56ce198b7fba9106e885178abf3343ba86abdd9260405160405180910390a26000549050919050565b60015481565b600260009054906101000a900473ffffffffffffffffffffffffffffffffffffffff1673ffffffffffffffffffffffffffffffffffffffff163373ffffffffffffffffffffffffffffffffffffffff1614611a41576040517f08c379a0000000000000000000000000000000000000000000000000000000008152600401611a38906126d5565b60405180910390fd5b6064811115611a85576040517f08c379a0000000000000000000000000000000000000000000000000000000008152600401611a7c90612b55565b60405180910390fd5b8060018190555050565b60405180610100016040528060008152602001600073ffffffffffffffffffffffffffffffffffffffff16815260200160608152602001606081526020016000815260200160006003811115611ae857611ae7611c12565b5b815260200160008152602001606081525090565b600081519050919050565b600082825260208201905092915050565b6000819050602082019050919050565b6000819050919050565b611b3b81611b28565b82525050565b600073ffffffffffffffffffffffffffffffffffffffff82169050919050565b6000611b6c82611b41565b9050919050565b611b7c81611b61565b82525050565b600081519050919050565b600082825260208201905092915050565b60005b83811015611bbc578082015181840152602081019050611ba1565b60008484015250505050565b6000601f19601f8301169050919050565b6000611be482611b82565b611bee8185611b8d565b9350611bfe818560208601611b9e565b611c0781611bc8565b840191505092915050565b7f4e487b7100000000000000000000000000000000000000000000000000000000600052602160045260246000fd5b60048110611c5257611c51611c12565b5b50565b6000819050611c6382611c41565b919050565b6000611c7382611c55565b9050919050565b611c8381611c68565b82525050565b600061010083016000830151611ca26000860182611b32565b506020830151611cb56020860182611b73565b5060408301518482036040860152611ccd8282611bd9565b91505060608301518482036060860152611ce78282611bd9565b9150506080830151611cfc6080860182611b32565b5060a0830151611d0f60a0860182611c7a565b5060c0830151611d2260c0860182611b32565b5060e083015184820360e0860152611d3a8282611bd9565b9150508091505092915050565b6000611d538383611c89565b905092915050565b6000602082019050919050565b6000611d7382611afc565b611d7d8185611b07565b935083602082028501611d8f85611b18565b8060005b85811015611dcb5784840389528151611dac8582611d47565b9450611db783611d5b565b925060208a01995050600181019050611d93565b50829750879550505050505092915050565b60006020820190508181036000830152611df78184611d68565b905092915050565b6000604051905090565b600080fd5b600080fd5b611e1c81611b28565b8114611e2757600080fd5b50565b600081359050611e3981611e13565b92915050565b600060208284031215611e5557611e54611e09565b5b6000611e6384828501611e2a565b91505092915050565b611e7581611b28565b82525050565b611e8481611b61565b82525050565b600082825260208201905092915050565b6000611ea682611b82565b611eb08185611e8a565b9350611ec0818560208601611b9e565b611ec981611bc8565b840191505092915050565b611edd81611c68565b82525050565b600061010082019050611ef9600083018b611e6c565b611f06602083018a611e7b565b8181036040830152611f188189611e9b565b90508181036060830152611f2c8188611e9b565b9050611f3b6080830187611e6c565b611f4860a0830186611ed4565b611f5560c0830185611e6c565b81810360e0830152611f678184611e9b565b90509998505050505050505050565b6000602082019050611f8b6000830184611e6c565b92915050565b60008060408385031215611fa857611fa7611e09565b5b6000611fb685828601611e2a565b9250506020611fc785828601611e2a565b9150509250929050565b600061010083016000830151611fea6000860182611b32565b506020830151611ffd6020860182611b73565b50604083015184820360408601526120158282611bd9565b9150506060830151848203606086015261202f8282611bd9565b91505060808301516120446080860182611b32565b5060a083015161205760a0860182611c7a565b5060c083015161206a60c0860182611b32565b5060e083015184820360e08601526120828282611bd9565b9150508091505092915050565b600060208201905081810360008301526120a98184611fd1565b905092915050565b6120ba81611b61565b81146120c557600080fd5b50565b6000813590506120d7816120b1565b92915050565b6000602082840312156120f3576120f2611e09565b5b6000612101848285016120c8565b91505092915050565b600060208201905061211f6000830184611e7b565b92915050565b6000806040838503121561213c5761213b611e09565b5b600061214a858286016120c8565b925050602061215b85828601611e2a565b9150509250929050565b600080fd5b600080fd5b7f4e487b7100000000000000000000000000000000000000000000000000000000600052604160045260246000fd5b6121a782611bc8565b810181811067ffffffffffffffff821117156121c6576121c561216f565b5b80604052505050565b60006121d9611dff565b90506121e5828261219e565b919050565b600067ffffffffffffffff8211156122055761220461216f565b5b61220e82611bc8565b9050602081019050919050565b82818337600083830152505050565b600061223d612238846121ea565b6121cf565b9050828152602081018484840111156122595761225861216a565b5b61226484828561221b565b509392505050565b600082601f83011261228157612280612165565b5b813561229184826020860161222a565b91505092915050565b600080600080608085870312156122b4576122b3611e09565b5b60006122c287828801611e2a565b94505060206122d387828801611e2a565b935050604085013567ffffffffffffffff8111156122f4576122f3611e0e565b5b6123008782880161226c565b925050606085013567ffffffffffffffff81111561232157612320611e0e565b5b61232d8782880161226c565b91505092959194509250565b600080604083850312156123505761234f611e09565b5b600061235e85828601611e2a565b925050602083013567ffffffffffffffff81111561237f5761237e611e0e565b5b61238b8582860161226c565b9150509250929050565b600081519050919050565b600082825260208201905092915050565b6000819050602082019050919050565b60006123cd8383611b32565b60208301905092915050565b6000602082019050919050565b60006123f182612395565b6123fb81856123a0565b9350612406836123b1565b8060005b8381101561243757815161241e88826123c1565b9750612429836123d9565b92505060018101905061240a565b5085935050505092915050565b6000602082019050818103600083015261245e81846123e6565b905092915050565b60006020828403121561247c5761247b611e09565b5b600082013567ffffffffffffffff81111561249a57612499611e0e565b5b6124a68482850161226c565b91505092915050565b7f4e487b7100000000000000000000000000000000000000000000000000000000600052601160045260246000fd5b60006124e982611b28565b91507fffffffffffffffffffffffffffffffffffffffffffffffffffffffffffffffff820361251b5761251a6124af565b5b600182019050919050565b7f4e487b7100000000000000000000000000000000000000000000000000000000600052602260045260246000fd5b6000600282049050600182168061256d57607f821691505b6020821081036125805761257f612526565b5b50919050565b7f4e487b7100000000000000000000000000000000000000000000000000000000600052603260045260246000fd5b60006125c082611b28565b91506125cb83611b28565b92508282019050808211156125e3576125e26124af565b5b92915050565b60006125f482611b28565b91506125ff83611b28565b9250828203905081811115612617576126166124af565b5b92915050565b7f496e76616c696420706f73742049440000000000000000000000000000000000600082015250565b6000612653600f83611e8a565b915061265e8261261d565b602082019050919050565b6000602082019050818103600083015261268281612646565b9050919050565b7f4f6e6c79206f7261636c652063616e2063616c6c207468697300000000000000600082015250565b60006126bf601983611e8a565b91506126ca82612689565b602082019050919050565b600060208201905081810360008301526126ee816126b2565b9050919050565b7f506f7374206e6f742070656e64696e6700000000000000000000000000000000600082015250565b600061272b601083611e8a565b9150612736826126f5565b602082019050919050565b6000602082019050818103600083015261275a8161271e565b9050919050565b60008190508160005260206000209050919050565b60006020601f8301049050919050565b600082821b905092915050565b6000600883026127c37fffffffffffffffffffffffffffffffffffffffffffffffffffffffffffffffff82612786565b6127cd8683612786565b95508019841693508086168417925050509392505050565b6000819050919050565b600061280a61280561280084611b28565b6127e5565b611b28565b9050919050565b6000819050919050565b612824836127ef565b61283861283082612811565b848454612793565b825550505050565b600090565b61284d612840565b61285881848461281b565b505050565b5b8181101561287c57612871600082612845565b60018101905061285e565b5050565b601f8211156128c15761289281612761565b61289b84612776565b810160208510156128aa578190505b6128be6128b685612776565b83018261285d565b50505b505050565b600082821c905092915050565b60006128e4600019846008026128c6565b1980831691505092915050565b60006128fd83836128d3565b9150826002028217905092915050565b61291682611b82565b67ffffffffffffffff81111561292f5761292e61216f565b5b6129398254612555565b612944828285612880565b600060209050601f8311600181146129775760008415612965578287015190505b61296f85826128f1565b8655506129d7565b601f19841661298586612761565b60005b828110156129ad57848901518255600182019150602085019450602081019050612988565b868310156129ca57848901516129c6601f8916826128d3565b8355505b6001600288020188555050505b505050505050565b60006040820190506129f46000830185611e6c565b8181036020830152612a068184611e9b565b90509392505050565b7f495046532043494420726571756972656420666f7220617070726f76616c0000600082015250565b6000612a45601e83611e8a565b9150612a5082612a0f565b602082019050919050565b60006020820190508181036000830152612a7481612a38565b9050919050565b60006020820190508181036000830152612a958184611e9b565b905092915050565b7f557365726e616d65207265717569726564000000000000000000000000000000600082015250565b6000612ad3601183611e8a565b9150612ade82612a9d565b602082019050919050565b60006020820190508181036000830152612b0281612ac6565b9050919050565b7f5468726573686f6c64206d757374206265203c3d203130300000000000000000600082015250565b6000612b3f601883611e8a565b9150612b4a82612b09565b602082019050919050565b60006020820190508181036000830152612b6e81612b32565b905091905056fea26469706673582212205a548fd4bd86afda47419304cb8c52c168d54d4e74350957cc3222ca41f7089664736f6c63430008130033",
  "linkReferences": {},
  "deployedLinkReferences": {}
}